{
  "_format": "hh-sol-artifact-1",
  "contractName": "WMCAgreementManagement",
  "sourceName": "contracts/WMCAgreementManagement-v3.sol",
  "abi": [
    {
      "inputs": [
        {
          "internalType": "address",
          "name": "_usdcTokenAddress",
          "type": "address"
        }
      ],
      "stateMutability": "nonpayable",
      "type": "constructor"
    },
    {
      "inputs": [],
      "name": "AGREEMENTS_PAYER",
      "outputs": [
        {
          "internalType": "address",
          "name": "",
          "type": "address"
        }
      ],
      "stateMutability": "view",
      "type": "function"
    },
    {
      "inputs": [
        {
          "internalType": "address",
          "name": "_arbiter",
          "type": "address"
        }
      ],
      "name": "addValidArbiterIfNotExists",
      "outputs": [],
      "stateMutability": "nonpayable",
      "type": "function"
    },
    {
      "inputs": [
        {
          "internalType": "uint256",
          "name": "",
          "type": "uint256"
        }
      ],
      "name": "agreements",
      "outputs": [
        {
          "internalType": "address",
          "name": "serviceProvider",
          "type": "address"
        },
        {
          "internalType": "address",
          "name": "servicePayer",
          "type": "address"
        },
        {
          "internalType": "address",
          "name": "arbitrator",
          "type": "address"
        },
        {
          "internalType": "uint256",
          "name": "startDate",
          "type": "uint256"
        },
        {
          "internalType": "uint256",
          "name": "endDate",
          "type": "uint256"
        },
        {
          "internalType": "uint256",
          "name": "amount",
          "type": "uint256"
        },
        {
          "internalType": "bool",
          "name": "spaAgree",
          "type": "bool"
        },
        {
          "internalType": "bool",
          "name": "sprAgree",
          "type": "bool"
        },
        {
          "internalType": "enum WMCAgreementManagement.ArbitrationState",
          "name": "arbitrationState",
          "type": "uint8"
        }
      ],
      "stateMutability": "view",
      "type": "function"
    },
    {
      "inputs": [],
      "name": "daoTreasury",
      "outputs": [
        {
          "internalType": "address",
          "name": "",
          "type": "address"
        }
      ],
      "stateMutability": "view",
      "type": "function"
    },
    {
      "inputs": [
        {
          "internalType": "address",
          "name": "_serviceProvider",
          "type": "address"
        },
        {
          "internalType": "address",
          "name": "_servicePayer",
          "type": "address"
        },
        {
          "internalType": "address",
          "name": "_arbitrator",
          "type": "address"
        },
        {
          "internalType": "uint256",
          "name": "_startDate",
          "type": "uint256"
        },
        {
          "internalType": "uint256",
          "name": "_endDate",
          "type": "uint256"
        },
        {
          "internalType": "uint256",
          "name": "_amount",
          "type": "uint256"
        }
      ],
      "name": "newAgreement",
      "outputs": [
        {
          "internalType": "uint256",
          "name": "",
          "type": "uint256"
        }
      ],
      "stateMutability": "nonpayable",
      "type": "function"
    },
    {
      "inputs": [
        {
          "internalType": "uint256[]",
          "name": "agreementIds",
          "type": "uint256[]"
        }
      ],
      "name": "processAgreementsBatch",
      "outputs": [],
      "stateMutability": "nonpayable",
      "type": "function"
    },
    {
      "inputs": [
        {
          "internalType": "uint256",
          "name": "_id",
          "type": "uint256"
        },
        {
          "internalType": "bool",
          "name": "inFavorOfProvider",
          "type": "bool"
        }
      ],
      "name": "resolveDisagreement",
      "outputs": [],
      "stateMutability": "nonpayable",
      "type": "function"
    },
    {
      "inputs": [
        {
          "internalType": "uint256",
          "name": "_id",
          "type": "uint256"
        },
        {
          "internalType": "bool",
          "name": "agree",
          "type": "bool"
        }
      ],
      "name": "setAgreement",
      "outputs": [],
      "stateMutability": "nonpayable",
      "type": "function"
    },
    {
      "inputs": [],
      "name": "usdcToken",
      "outputs": [
        {
          "internalType": "contract IERC20",
          "name": "",
          "type": "address"
        }
      ],
      "stateMutability": "view",
      "type": "function"
    },
    {
      "inputs": [
        {
          "internalType": "uint256",
          "name": "",
          "type": "uint256"
        }
      ],
      "name": "validArbiters",
      "outputs": [
        {
          "internalType": "address",
          "name": "",
          "type": "address"
        }
      ],
      "stateMutability": "view",
      "type": "function"
    }
  ],
  "bytecode": "0x608060405273ac9adcccd19ea5a05e5a5a5f37c8c02dd9a2ce9c600360006101000a81548173ffffffffffffffffffffffffffffffffffffffff021916908373ffffffffffffffffffffffffffffffffffffffff1602179055503480156200006657600080fd5b50604051620023ba380380620023ba83398181016040528101906200008c9190620002a2565b806000806101000a81548173ffffffffffffffffffffffffffffffffffffffff021916908373ffffffffffffffffffffffffffffffffffffffff16021790555060027331e331e751e490ef39e8b269399a76f483b2b5af9080600181540180825580915050600190039060005260206000200160009091909190916101000a81548173ffffffffffffffffffffffffffffffffffffffff021916908373ffffffffffffffffffffffffffffffffffffffff1602179055506002733069ebaeca68b5f5e113e0d4fc3155bd0bf4926b9080600181540180825580915050600190039060005260206000200160009091909190916101000a81548173ffffffffffffffffffffffffffffffffffffffff021916908373ffffffffffffffffffffffffffffffffffffffff1602179055506002736c83c41cc7226afb36ee66814cabb952c9e89ec79080600181540180825580915050600190039060005260206000200160009091909190916101000a81548173ffffffffffffffffffffffffffffffffffffffff021916908373ffffffffffffffffffffffffffffffffffffffff16021790555050620002d4565b600080fd5b600073ffffffffffffffffffffffffffffffffffffffff82169050919050565b60006200026a826200023d565b9050919050565b6200027c816200025d565b81146200028857600080fd5b50565b6000815190506200029c8162000271565b92915050565b600060208284031215620002bb57620002ba62000238565b5b6000620002cb848285016200028b565b91505092915050565b6120d680620002e46000396000f3fe608060405234801561001057600080fd5b506004361061009e5760003560e01c80637468f08a116100665780637468f08a1461014757806379022a9f14610163578063bd14de9614610181578063db0f8526146101b9578063e0c37fa4146101e95761009e565b8063019ef97a146100a35780630b1b0173146100c157806311eac855146100dd57806359a9f918146100fb57806370fe58711461012b575b600080fd5b6100ab610205565b6040516100b891906112d6565b60405180910390f35b6100db60048036038101906100d69190611373565b61021d565b005b6100e5610374565b6040516100f29190611412565b60405180910390f35b6101156004803603810190610110919061142d565b610398565b60405161012291906112d6565b60405180910390f35b61014560048036038101906101409190611373565b6103d7565b005b610161600480360381019061015c91906115b3565b6106d9565b005b61016b6108ea565b60405161017891906112d6565b60405180910390f35b61019b6004803603810190610196919061142d565b610910565b6040516101b099989796959493929190611691565b60405180910390f35b6101d360048036038101906101ce919061174a565b6109f5565b6040516101e091906117d7565b60405180910390f35b61020360048036038101906101fe91906117f2565b610f7b565b005b7356d30ae87f2ab68f3c0d8125bad517774c79c64c81565b6000600183815481106102335761023261181f565b5b906000526020600020906007020190508060010160009054906101000a900473ffffffffffffffffffffffffffffffffffffffff1673ffffffffffffffffffffffffffffffffffffffff163373ffffffffffffffffffffffffffffffffffffffff16036102bb57818160060160006101000a81548160ff02191690831515021790555061036f565b8060000160009054906101000a900473ffffffffffffffffffffffffffffffffffffffff1673ffffffffffffffffffffffffffffffffffffffff163373ffffffffffffffffffffffffffffffffffffffff160361033357818160060160016101000a81548160ff02191690831515021790555061036e565b6040517f08c379a0000000000000000000000000000000000000000000000000000000008152600401610365906118ab565b60405180910390fd5b5b505050565b60008054906101000a900473ffffffffffffffffffffffffffffffffffffffff1681565b600281815481106103a857600080fd5b906000526020600020016000915054906101000a900473ffffffffffffffffffffffffffffffffffffffff1681565b6000600183815481106103ed576103ec61181f565b5b906000526020600020906007020190508060020160009054906101000a900473ffffffffffffffffffffffffffffffffffffffff1673ffffffffffffffffffffffffffffffffffffffff163373ffffffffffffffffffffffffffffffffffffffff161461048f576040517f08c379a00000000000000000000000000000000000000000000000000000000081526004016104869061193d565b60405180910390fd5b60008160050154116104d6576040517f08c379a00000000000000000000000000000000000000000000000000000000081526004016104cd906119a9565b60405180910390fd5b81156105d55760028160060160026101000a81548160ff021916908360028111156105045761050361161a565b5b021790555060008054906101000a900473ffffffffffffffffffffffffffffffffffffffff1673ffffffffffffffffffffffffffffffffffffffff1663a9059cbb8260000160009054906101000a900473ffffffffffffffffffffffffffffffffffffffff1683600501546040518363ffffffff1660e01b815260040161058c9291906119c9565b6020604051808303816000875af11580156105ab573d6000803e3d6000fd5b505050506040513d601f19601f820116820180604052508101906105cf9190611a07565b506106ca565b60018160060160026101000a81548160ff021916908360028111156105fd576105fc61161a565b5b021790555060008054906101000a900473ffffffffffffffffffffffffffffffffffffffff1673ffffffffffffffffffffffffffffffffffffffff1663a9059cbb8260010160009054906101000a900473ffffffffffffffffffffffffffffffffffffffff1683600501546040518363ffffffff1660e01b81526004016106859291906119c9565b6020604051808303816000875af11580156106a4573d6000803e3d6000fd5b505050506040513d601f19601f820116820180604052508101906106c89190611a07565b505b60008160050181905550505050565b7356d30ae87f2ab68f3c0d8125bad517774c79c64c73ffffffffffffffffffffffffffffffffffffffff163373ffffffffffffffffffffffffffffffffffffffff161461075b576040517f08c379a000000000000000000000000000000000000000000000000000000000815260040161075290611acc565b60405180910390fd5b600061076642611072565b905060005b82518110156108e5576000600184838151811061078b5761078a61181f565b5b6020026020010151815481106107a4576107a361181f565b5b90600052602060002090600702019050600081600501541180156107d657508060060160009054906101000a900460ff165b80156107f057508060060160019054906101000a900460ff165b8015610800575080600401548310155b156108d75760008054906101000a900473ffffffffffffffffffffffffffffffffffffffff1673ffffffffffffffffffffffffffffffffffffffff1663a9059cbb8260000160009054906101000a900473ffffffffffffffffffffffffffffffffffffffff1683600501546040518363ffffffff1660e01b81526004016108889291906119c9565b6020604051808303816000875af11580156108a7573d6000803e3d6000fd5b505050506040513d601f19601f820116820180604052508101906108cb9190611a07565b50600081600501819055505b50808060010191505061076b565b505050565b600360009054906101000a900473ffffffffffffffffffffffffffffffffffffffff1681565b6001818154811061092057600080fd5b90600052602060002090600702016000915090508060000160009054906101000a900473ffffffffffffffffffffffffffffffffffffffff16908060010160009054906101000a900473ffffffffffffffffffffffffffffffffffffffff16908060020160009054906101000a900473ffffffffffffffffffffffffffffffffffffffff16908060030154908060040154908060050154908060060160009054906101000a900460ff16908060060160019054906101000a900460ff16908060060160029054906101000a900460ff16905089565b600080610a0185611072565b90506000610a0e85611072565b90506000610a1b42611072565b90508873ffffffffffffffffffffffffffffffffffffffff168a73ffffffffffffffffffffffffffffffffffffffff1603610a8b576040517f08c379a0000000000000000000000000000000000000000000000000000000008152600401610a8290611b5e565b60405180910390fd5b80831015610ace576040517f08c379a0000000000000000000000000000000000000000000000000000000008152600401610ac590611bf0565b60405180910390fd5b82821015610b11576040517f08c379a0000000000000000000000000000000000000000000000000000000008152600401610b0890611c82565b60405180910390fd5b620f42406216e360610b239190611cd1565b8511610b64576040517f08c379a0000000000000000000000000000000000000000000000000000000008152600401610b5b90611d77565b60405180910390fd5b60008054906101000a900473ffffffffffffffffffffffffffffffffffffffff1673ffffffffffffffffffffffffffffffffffffffff166323b872dd3330886040518463ffffffff1660e01b8152600401610bc193929190611d97565b6020604051808303816000875af1158015610be0573d6000803e3d6000fd5b505050506040513d601f19601f82011682018060405250810190610c049190611a07565b5060016040518061012001604052808c73ffffffffffffffffffffffffffffffffffffffff1681526020018b73ffffffffffffffffffffffffffffffffffffffff1681526020018a73ffffffffffffffffffffffffffffffffffffffff168152602001858152602001848152602001620f42406216e36089610c869190611dce565b610c909190611dce565b815260200160011515815260200160011515815260200160006002811115610cbb57610cba61161a565b5b815250908060018154018082558091505060019003906000526020600020906007020160009091909190915060008201518160000160006101000a81548173ffffffffffffffffffffffffffffffffffffffff021916908373ffffffffffffffffffffffffffffffffffffffff16021790555060208201518160010160006101000a81548173ffffffffffffffffffffffffffffffffffffffff021916908373ffffffffffffffffffffffffffffffffffffffff16021790555060408201518160020160006101000a81548173ffffffffffffffffffffffffffffffffffffffff021916908373ffffffffffffffffffffffffffffffffffffffff160217905550606082015181600301556080820151816004015560a0820151816005015560c08201518160060160006101000a81548160ff02191690831515021790555060e08201518160060160016101000a81548160ff0219169083151502179055506101008201518160060160026101000a81548160ff02191690836002811115610e4657610e4561161a565b5b0217905550505060008054906101000a900473ffffffffffffffffffffffffffffffffffffffff1673ffffffffffffffffffffffffffffffffffffffff1663a9059cbb600360009054906101000a900473ffffffffffffffffffffffffffffffffffffffff16620f42406040518363ffffffff1660e01b8152600401610ecd9291906119c9565b6020604051808303816000875af1158015610eec573d6000803e3d6000fd5b505050506040513d601f19601f82011682018060405250810190610f109190611a07565b610f4f576040517f08c379a0000000000000000000000000000000000000000000000000000000008152600401610f4690611e74565b60405180910390fd5b610f5b6216e360611095565b60018080549050610f6c9190611dce565b93505050509695505050505050565b610f84336111ed565b610fc3576040517f08c379a0000000000000000000000000000000000000000000000000000000008152600401610fba90611f06565b60405180910390fd5b610fcc816111ed565b1561100c576040517f08c379a000000000000000000000000000000000000000000000000000000000815260040161100390611f72565b60405180910390fd5b6002819080600181540180825580915050600190039060005260206000200160009091909190916101000a81548173ffffffffffffffffffffffffffffffffffffffff021916908373ffffffffffffffffffffffffffffffffffffffff16021790555050565b60006201518080836110849190611fc1565b61108e9190611ff2565b9050919050565b60006002805490509050600081116110e2576040517f08c379a00000000000000000000000000000000000000000000000000000000081526004016110d990612080565b60405180910390fd5b600081836110f09190611fc1565b905060005b828110156111e75760008054906101000a900473ffffffffffffffffffffffffffffffffffffffff1673ffffffffffffffffffffffffffffffffffffffff1663a9059cbb6002838154811061114d5761114c61181f565b5b9060005260206000200160009054906101000a900473ffffffffffffffffffffffffffffffffffffffff16846040518363ffffffff1660e01b81526004016111969291906119c9565b6020604051808303816000875af11580156111b5573d6000803e3d6000fd5b505050506040513d601f19601f820116820180604052508101906111d99190611a07565b5080806001019150506110f5565b50505050565b600080600090505b60028054905081101561128a578273ffffffffffffffffffffffffffffffffffffffff166002828154811061122d5761122c61181f565b5b9060005260206000200160009054906101000a900473ffffffffffffffffffffffffffffffffffffffff1673ffffffffffffffffffffffffffffffffffffffff160361127d576001915050611290565b80806001019150506111f5565b50600090505b919050565b600073ffffffffffffffffffffffffffffffffffffffff82169050919050565b60006112c082611295565b9050919050565b6112d0816112b5565b82525050565b60006020820190506112eb60008301846112c7565b92915050565b6000604051905090565b600080fd5b600080fd5b6000819050919050565b61131881611305565b811461132357600080fd5b50565b6000813590506113358161130f565b92915050565b60008115159050919050565b6113508161133b565b811461135b57600080fd5b50565b60008135905061136d81611347565b92915050565b6000806040838503121561138a576113896112fb565b5b600061139885828601611326565b92505060206113a98582860161135e565b9150509250929050565b6000819050919050565b60006113d86113d36113ce84611295565b6113b3565b611295565b9050919050565b60006113ea826113bd565b9050919050565b60006113fc826113df565b9050919050565b61140c816113f1565b82525050565b60006020820190506114276000830184611403565b92915050565b600060208284031215611443576114426112fb565b5b600061145184828501611326565b91505092915050565b600080fd5b6000601f19601f8301169050919050565b7f4e487b7100000000000000000000000000000000000000000000000000000000600052604160045260246000fd5b6114a88261145f565b810181811067ffffffffffffffff821117156114c7576114c6611470565b5b80604052505050565b60006114da6112f1565b90506114e6828261149f565b919050565b600067ffffffffffffffff82111561150657611505611470565b5b602082029050602081019050919050565b600080fd5b600061152f61152a846114eb565b6114d0565b9050808382526020820190506020840283018581111561155257611551611517565b5b835b8181101561157b57806115678882611326565b845260208401935050602081019050611554565b5050509392505050565b600082601f83011261159a5761159961145a565b5b81356115aa84826020860161151c565b91505092915050565b6000602082840312156115c9576115c86112fb565b5b600082013567ffffffffffffffff8111156115e7576115e6611300565b5b6115f384828501611585565b91505092915050565b61160581611305565b82525050565b6116148161133b565b82525050565b7f4e487b7100000000000000000000000000000000000000000000000000000000600052602160045260246000fd5b6003811061165a5761165961161a565b5b50565b600081905061166b82611649565b919050565b600061167b8261165d565b9050919050565b61168b81611670565b82525050565b6000610120820190506116a7600083018c6112c7565b6116b4602083018b6112c7565b6116c1604083018a6112c7565b6116ce60608301896115fc565b6116db60808301886115fc565b6116e860a08301876115fc565b6116f560c083018661160b565b61170260e083018561160b565b611710610100830184611682565b9a9950505050505050505050565b611727816112b5565b811461173257600080fd5b50565b6000813590506117448161171e565b92915050565b60008060008060008060c08789031215611767576117666112fb565b5b600061177589828a01611735565b965050602061178689828a01611735565b955050604061179789828a01611735565b94505060606117a889828a01611326565b93505060806117b989828a01611326565b92505060a06117ca89828a01611326565b9150509295509295509295565b60006020820190506117ec60008301846115fc565b92915050565b600060208284031215611808576118076112fb565b5b600061181684828501611735565b91505092915050565b7f4e487b7100000000000000000000000000000000000000000000000000000000600052603260045260246000fd5b600082825260208201905092915050565b7f4e6f206175746f72697a61646f00000000000000000000000000000000000000600082015250565b6000611895600d8361184e565b91506118a08261185f565b602082019050919050565b600060208201905081810360008301526118c481611888565b9050919050565b7f536f6c6f20656c206172626974726f20617369676e61646f207075656465207260008201527f65736f6c7665722e000000000000000000000000000000000000000000000000602082015250565b600061192760288361184e565b9150611932826118cb565b604082019050919050565b600060208201905081810360008301526119568161191a565b9050919050565b7f4163756572646f2079612072657375656c746f2e000000000000000000000000600082015250565b600061199360148361184e565b915061199e8261195d565b602082019050919050565b600060208201905081810360008301526119c281611986565b9050919050565b60006040820190506119de60008301856112c7565b6119eb60208301846115fc565b9392505050565b600081519050611a0181611347565b92915050565b600060208284031215611a1d57611a1c6112fb565b5b6000611a2b848285016119f2565b91505092915050565b7f536f6c6f206c612077616c6c6574206175746f72697a6164612070617261204160008201527f677265656d656e74732050617965722070756564652070726f6365736172207960208201527f207061676172206163756572646f730000000000000000000000000000000000604082015250565b6000611ab6604f8361184e565b9150611ac182611a34565b606082019050919050565b60006020820190508181036000830152611ae581611aa9565b9050919050565b7f4c61732077616c6c6574732064652070726f766565646f72207920706167616460008201527f6f72206e6f2070756564656e2073657220696775616c65732e00000000000000602082015250565b6000611b4860398361184e565b9150611b5382611aec565b604082019050919050565b60006020820190508181036000830152611b7781611b3b565b9050919050565b7f466563686120646520696e6963696f20646562652073657220686f79206f206d60008201527f61796f7200000000000000000000000000000000000000000000000000000000602082015250565b6000611bda60248361184e565b9150611be582611b7e565b604082019050919050565b60006020820190508181036000830152611c0981611bcd565b9050919050565b7f46656368612064652066696e206465626520736572206d61796f72206f20696760008201527f75616c2061206c6120646520696e6963696f0000000000000000000000000000602082015250565b6000611c6c60328361184e565b9150611c7782611c10565b604082019050919050565b60006020820190508181036000830152611c9b81611c5f565b9050919050565b7f4e487b7100000000000000000000000000000000000000000000000000000000600052601160045260246000fd5b6000611cdc82611305565b9150611ce783611305565b9250828201905080821115611cff57611cfe611ca2565b5b92915050565b7f4d6f6e746f20696e737566696369656e7465207061726120637562726972206660008201527f6565732e00000000000000000000000000000000000000000000000000000000602082015250565b6000611d6160248361184e565b9150611d6c82611d05565b604082019050919050565b60006020820190508181036000830152611d9081611d54565b9050919050565b6000606082019050611dac60008301866112c7565b611db960208301856112c7565b611dc660408301846115fc565b949350505050565b6000611dd982611305565b9150611de483611305565b9250828203905081811115611dfc57611dfb611ca2565b5b92915050565b7f5472616e73666572656e63696120616c207465736f726f2044414f2066616c6c60008201527f6964612e00000000000000000000000000000000000000000000000000000000602082015250565b6000611e5e60248361184e565b9150611e6982611e02565b604082019050919050565b60006020820190508181036000830152611e8d81611e51565b9050919050565b7f536f6c6f20756e206172626974726f2076616c69646f2070756564652061677260008201527f65676172206e7565766f73206172626974726f732e0000000000000000000000602082015250565b6000611ef060358361184e565b9150611efb82611e94565b604082019050919050565b60006020820190508181036000830152611f1f81611ee3565b9050919050565b7f456c206172626974726f2079612065737461207265676973747261646f2e0000600082015250565b6000611f5c601e8361184e565b9150611f6782611f26565b602082019050919050565b60006020820190508181036000830152611f8b81611f4f565b9050919050565b7f4e487b7100000000000000000000000000000000000000000000000000000000600052601260045260246000fd5b6000611fcc82611305565b9150611fd783611305565b925082611fe757611fe6611f92565b5b828204905092915050565b6000611ffd82611305565b915061200883611305565b925082820261201681611305565b9150828204841483151761202d5761202c611ca2565b5b5092915050565b7f4e6f20686179206172626974726f732076616c69646f732e0000000000000000600082015250565b600061206a60188361184e565b915061207582612034565b602082019050919050565b600060208201905081810360008301526120998161205d565b905091905056fea264697066735822122034abc853686b7858095c0d660db21c2c96aa7affcae9866eafdd8b6a7e1dfc0564736f6c63430008180033",
  "linkReferences": {},
  "deployedLinkReferences": {}
}